:020000040000fa
:080000000002040000000000f2
:020000040000fa
:100400000f0221000eff24000e01880000000000f2
:100410000c000700a04e2000010020000f00070084
:10042000000020000000e000020032000000020096
:100430000000000004050200000000000040da0097
:100440000000fe00000020000000e000020032007a
:10045000000020009001880000000600a102880032
:10046000800078000000eb001a003700e2804000b6
:1004700054a0b4009101ba00e280400054a0b4003e
:100480009102ba00e280400054a0b4000002eb00e8
:10049000472bde00f507b200a6018800602ce100c2
:1004a00008003a000049eb000201e80002003900b0
:1004b0003420ec0002f0a0008301e900f9ff3e00c7
:1004c000040037006128e100010032000082eb00e7
:1004d000040007001101ba000200e000e3ff3a0047
:1004e0000000060004d0a300e20f49001c00390000
:1004f000810278003549ba000201e80002003900a3
:100500003420ec0002f0a0008301e9000f0032006b
:100510002549ba000201e800020039003420ec004d
:1005200002f0a0008301e900080032000400e000ae
:100530000600320015c9ba000201e80002003900c5
:100540003420ec0002f0a0008301e9008180e80083
:1005500054a0b4000300e000e2ff3a0000000600ef
:100560009102ba00055978008301e900f7ff3200d3
:10057000c82ade00055978008301e900f3ff320044
:100580000400e000f1ff320011d9ba00eeff37009d
:080590000040da000000fe004b
:020000040000fa
:020000040002f8
:04afe000dfff00008f
:020000040000fa
:020000040002f8
:04afe8007fff0000e7
:020000040000fa
:020000040002f8
:04afec00bdff0000a5
:020000040000fa
:020000040002f8
:04aff0007bff0000e3
:020000040000fa
:10000800c8020000c8020000c8020000c8020000c0
:10001800c8020000c8020000c8020000c8020000b0
:10002800c8020000c8020000c8020000c8020000a0
:10003800c8020000c8020000c8020000c802000090
:020000040000fa
:100598000000fa00407420009040780000ceb300bc
:1005a80080c060004074200001487800c10320002a
:1005b8006074200001087800407420001040780022
:1005c800f2c3b30082406000407420000148780004
:1005d800307420001040780002c7b30082406000e9
:1005e80000c3b30080cf5000f9ff3a002074200008
:1005f800104078000042b2000004e000fbff320027
:100608000080fa00000006000000fa0021e3a900bb
:100618001032200090407800c0cfb30080c0600046
:1006280010322000014878002083a9000032200001
:100638009040780000ceb30080c0700000322000e7
:10064800014878002043a9002143a9002063a8009d
:100658003032200010407800804078003140b300ec
:10066800303220000148780025e3a90050322000ec
:100678009040780000ceb30000c060000004a000e5
:10068800513220008048780091c1b30040322000e8
:10069800014878002183a80020322000904078008b
:1006a80030c8b30080c060002032200001487800c4
:1006b8003303a8002603a900603220009040780088
:1006c80090cfb30080c060006032200001487800fd
:1006d80028e3a900803220009040780000ceb300c3
:1006e80000c060000034a0008132200080487800fb
:1006f80001a8a90021a8a90021e3a8002043a80077
:100708000080fa00000006000000fa0021e2a900bb
:1007180021a2a9002182a9002162a900102220009b
:1007280090407800c0cfb30080c060001022200045
:100738000148780020e2a90020c2a90020a2a9004f
:100748002082a9002062a9000022200090407800a1
:1007580090cfb30080c060000022200001487800dc
:100768002002a900e1002000802220000108780072
:1007780023e2a90023c2a90023a2a9002362a90099
:100788002342a9002022200010407800f2c3b300c1
:1007980082406000202220000148780022a2a9009f
:1007a8000188a9002188a8000168a9002168a8007b
:1007b80021e2a8002342a8000080fa0000000600f9
:1007c8000000fa0000b0200090407800f0ccb300a0
:1007d80080c0600000b020000148780000b0200010
:1007e80090407800c0cfb30000c060000014a000a3
:1007f80001b0200080487800003020008000780098
:10080800c0b020000108780031002000e0b02000ce
:1008180001087800d100200020b0200001087800ed
:10082800000021008000780040b020000108780016
:10083800000021008000780060b0200001087800e6
:10084800800021008000780080b020000108780036
:100858008000210080007800a0b020000108780006
:100868000088a9002088a80001eba8000080fa00f1
:10087800000006000000fa001e0ea9001e2ea900a6
:100888001e4ea9001e6ea9001f0ea9002e2ea9003b
:100898002e4ea900310ea90030cea90021aea90024
:1008a800350ea90034cea90025aea9000080fa00b3
:1008b800000006000000fa0005e1a90005a1a90052
:1008c80004c1a900401020009040780000c3b30084
:1008d80080c0700040102000014878000441a90041
:1008e8000421a90001192000201020000108780027
:1008f8000068a9002068a80005e1a8000080fa00a7
:10090800000006000000fa0011e1a90011a1a900e9
:1009180010c1a900001120009040780000c3b30066
:1009280080c0700000112000014878001061a90003
:100938001021a90081252000c0102000010878009e
:1009480000e8a90020e8a80011e1a8000080fa004a
:10095800000006000000fa0001eca90001aca900a3
:10096800212ca80000c2200010407800f043b200fb
:1009780001c8b3000140700001c22000804878001f
:1009880023eca90023cca90030c220001040780035
:1009980080407800c140b30030c220000148780090
:1009a8000171220080c220000108780081382100ee
:1009b80060c22000010878000bc8a9002bc8a80055
:0c09c80001eca8000080fa00000006000e
:020000040000fa
:1009d4000010000008000000800000000810000063
:1009e4000800000080000000101000000800000053
:1009f40080000000181000000800000080000000c3
:040a040000000000ee
:020000040000fa
:100a08000000fa00e2fe07009aff0700350ea80072
:0c0a180034cea80025aea900fcff37007a
:00000001FF
